{
  "_format": "hh-sol-artifact-1",
  "contractName": "MyEpicGame",
  "sourceName": "contracts/MyEpicGame.sol",
  "abi": [
    {
      "inputs": [
        {
          "internalType": "string[]",
          "name": "characterNames",
          "type": "string[]"
        },
        {
          "internalType": "string[]",
          "name": "characterImageURIs",
          "type": "string[]"
        },
        {
          "internalType": "uint256[]",
          "name": "characterHp",
          "type": "uint256[]"
        },
        {
          "internalType": "uint256[]",
          "name": "characterAttackDmg",
          "type": "uint256[]"
        },
        {
          "internalType": "string",
          "name": "bossName",
          "type": "string"
        },
        {
          "internalType": "string",
          "name": "bossImageURI",
          "type": "string"
        },
        {
          "internalType": "uint256",
          "name": "bossHp",
          "type": "uint256"
        },
        {
          "internalType": "uint256",
          "name": "bossAttackDamage",
          "type": "uint256"
        }
      ],
      "stateMutability": "nonpayable",
      "type": "constructor"
    },
    {
      "anonymous": false,
      "inputs": [
        {
          "indexed": true,
          "internalType": "address",
          "name": "owner",
          "type": "address"
        },
        {
          "indexed": true,
          "internalType": "address",
          "name": "approved",
          "type": "address"
        },
        {
          "indexed": true,
          "internalType": "uint256",
          "name": "tokenId",
          "type": "uint256"
        }
      ],
      "name": "Approval",
      "type": "event"
    },
    {
      "anonymous": false,
      "inputs": [
        {
          "indexed": true,
          "internalType": "address",
          "name": "owner",
          "type": "address"
        },
        {
          "indexed": true,
          "internalType": "address",
          "name": "operator",
          "type": "address"
        },
        {
          "indexed": false,
          "internalType": "bool",
          "name": "approved",
          "type": "bool"
        }
      ],
      "name": "ApprovalForAll",
      "type": "event"
    },
    {
      "anonymous": false,
      "inputs": [
        {
          "indexed": false,
          "internalType": "uint256",
          "name": "newBossHp",
          "type": "uint256"
        },
        {
          "indexed": false,
          "internalType": "uint256",
          "name": "newPlayerHp",
          "type": "uint256"
        }
      ],
      "name": "AttackComplete",
      "type": "event"
    },
    {
      "anonymous": false,
      "inputs": [
        {
          "indexed": false,
          "internalType": "address",
          "name": "sender",
          "type": "address"
        },
        {
          "indexed": false,
          "internalType": "uint256",
          "name": "tokenId",
          "type": "uint256"
        },
        {
          "indexed": false,
          "internalType": "uint256",
          "name": "characterIndex",
          "type": "uint256"
        }
      ],
      "name": "CharacterNFTMinted",
      "type": "event"
    },
    {
      "anonymous": false,
      "inputs": [
        {
          "indexed": true,
          "internalType": "address",
          "name": "from",
          "type": "address"
        },
        {
          "indexed": true,
          "internalType": "address",
          "name": "to",
          "type": "address"
        },
        {
          "indexed": true,
          "internalType": "uint256",
          "name": "tokenId",
          "type": "uint256"
        }
      ],
      "name": "Transfer",
      "type": "event"
    },
    {
      "inputs": [
        {
          "internalType": "address",
          "name": "to",
          "type": "address"
        },
        {
          "internalType": "uint256",
          "name": "tokenId",
          "type": "uint256"
        }
      ],
      "name": "approve",
      "outputs": [],
      "stateMutability": "nonpayable",
      "type": "function"
    },
    {
      "inputs": [],
      "name": "attackBoss",
      "outputs": [],
      "stateMutability": "nonpayable",
      "type": "function"
    },
    {
      "inputs": [
        {
          "internalType": "address",
          "name": "owner",
          "type": "address"
        }
      ],
      "name": "balanceOf",
      "outputs": [
        {
          "internalType": "uint256",
          "name": "",
          "type": "uint256"
        }
      ],
      "stateMutability": "view",
      "type": "function"
    },
    {
      "inputs": [],
      "name": "bigBoss",
      "outputs": [
        {
          "internalType": "string",
          "name": "name",
          "type": "string"
        },
        {
          "internalType": "string",
          "name": "imageURI",
          "type": "string"
        },
        {
          "internalType": "uint256",
          "name": "hp",
          "type": "uint256"
        },
        {
          "internalType": "uint256",
          "name": "maxHp",
          "type": "uint256"
        },
        {
          "internalType": "uint256",
          "name": "attackDamage",
          "type": "uint256"
        }
      ],
      "stateMutability": "view",
      "type": "function"
    },
    {
      "inputs": [],
      "name": "checkIfUserHasNFT",
      "outputs": [
        {
          "components": [
            {
              "internalType": "uint256",
              "name": "characterIndex",
              "type": "uint256"
            },
            {
              "internalType": "string",
              "name": "name",
              "type": "string"
            },
            {
              "internalType": "string",
              "name": "imageURI",
              "type": "string"
            },
            {
              "internalType": "uint256",
              "name": "hp",
              "type": "uint256"
            },
            {
              "internalType": "uint256",
              "name": "maxHp",
              "type": "uint256"
            },
            {
              "internalType": "uint256",
              "name": "attackDamage",
              "type": "uint256"
            }
          ],
          "internalType": "struct MyEpicGame.CharacterAttributes",
          "name": "",
          "type": "tuple"
        }
      ],
      "stateMutability": "view",
      "type": "function"
    },
    {
      "inputs": [
        {
          "internalType": "uint256",
          "name": "",
          "type": "uint256"
        }
      ],
      "name": "defaultCharacters",
      "outputs": [
        {
          "internalType": "uint256",
          "name": "characterIndex",
          "type": "uint256"
        },
        {
          "internalType": "string",
          "name": "name",
          "type": "string"
        },
        {
          "internalType": "string",
          "name": "imageURI",
          "type": "string"
        },
        {
          "internalType": "uint256",
          "name": "hp",
          "type": "uint256"
        },
        {
          "internalType": "uint256",
          "name": "maxHp",
          "type": "uint256"
        },
        {
          "internalType": "uint256",
          "name": "attackDamage",
          "type": "uint256"
        }
      ],
      "stateMutability": "view",
      "type": "function"
    },
    {
      "inputs": [],
      "name": "getAllDefaultCharacters",
      "outputs": [
        {
          "components": [
            {
              "internalType": "uint256",
              "name": "characterIndex",
              "type": "uint256"
            },
            {
              "internalType": "string",
              "name": "name",
              "type": "string"
            },
            {
              "internalType": "string",
              "name": "imageURI",
              "type": "string"
            },
            {
              "internalType": "uint256",
              "name": "hp",
              "type": "uint256"
            },
            {
              "internalType": "uint256",
              "name": "maxHp",
              "type": "uint256"
            },
            {
              "internalType": "uint256",
              "name": "attackDamage",
              "type": "uint256"
            }
          ],
          "internalType": "struct MyEpicGame.CharacterAttributes[]",
          "name": "",
          "type": "tuple[]"
        }
      ],
      "stateMutability": "view",
      "type": "function"
    },
    {
      "inputs": [
        {
          "internalType": "uint256",
          "name": "tokenId",
          "type": "uint256"
        }
      ],
      "name": "getApproved",
      "outputs": [
        {
          "internalType": "address",
          "name": "",
          "type": "address"
        }
      ],
      "stateMutability": "view",
      "type": "function"
    },
    {
      "inputs": [],
      "name": "getBigBoss",
      "outputs": [
        {
          "components": [
            {
              "internalType": "string",
              "name": "name",
              "type": "string"
            },
            {
              "internalType": "string",
              "name": "imageURI",
              "type": "string"
            },
            {
              "internalType": "uint256",
              "name": "hp",
              "type": "uint256"
            },
            {
              "internalType": "uint256",
              "name": "maxHp",
              "type": "uint256"
            },
            {
              "internalType": "uint256",
              "name": "attackDamage",
              "type": "uint256"
            }
          ],
          "internalType": "struct MyEpicGame.BigBoss",
          "name": "",
          "type": "tuple"
        }
      ],
      "stateMutability": "view",
      "type": "function"
    },
    {
      "inputs": [
        {
          "internalType": "address",
          "name": "owner",
          "type": "address"
        },
        {
          "internalType": "address",
          "name": "operator",
          "type": "address"
        }
      ],
      "name": "isApprovedForAll",
      "outputs": [
        {
          "internalType": "bool",
          "name": "",
          "type": "bool"
        }
      ],
      "stateMutability": "view",
      "type": "function"
    },
    {
      "inputs": [
        {
          "internalType": "uint256",
          "name": "_characterIndex",
          "type": "uint256"
        }
      ],
      "name": "mintCharacterNFT",
      "outputs": [],
      "stateMutability": "nonpayable",
      "type": "function"
    },
    {
      "inputs": [],
      "name": "name",
      "outputs": [
        {
          "internalType": "string",
          "name": "",
          "type": "string"
        }
      ],
      "stateMutability": "view",
      "type": "function"
    },
    {
      "inputs": [
        {
          "internalType": "uint256",
          "name": "",
          "type": "uint256"
        }
      ],
      "name": "nftHolderAttributes",
      "outputs": [
        {
          "internalType": "uint256",
          "name": "characterIndex",
          "type": "uint256"
        },
        {
          "internalType": "string",
          "name": "name",
          "type": "string"
        },
        {
          "internalType": "string",
          "name": "imageURI",
          "type": "string"
        },
        {
          "internalType": "uint256",
          "name": "hp",
          "type": "uint256"
        },
        {
          "internalType": "uint256",
          "name": "maxHp",
          "type": "uint256"
        },
        {
          "internalType": "uint256",
          "name": "attackDamage",
          "type": "uint256"
        }
      ],
      "stateMutability": "view",
      "type": "function"
    },
    {
      "inputs": [
        {
          "internalType": "address",
          "name": "",
          "type": "address"
        }
      ],
      "name": "nftHolders",
      "outputs": [
        {
          "internalType": "uint256",
          "name": "",
          "type": "uint256"
        }
      ],
      "stateMutability": "view",
      "type": "function"
    },
    {
      "inputs": [
        {
          "internalType": "uint256",
          "name": "tokenId",
          "type": "uint256"
        }
      ],
      "name": "ownerOf",
      "outputs": [
        {
          "internalType": "address",
          "name": "",
          "type": "address"
        }
      ],
      "stateMutability": "view",
      "type": "function"
    },
    {
      "inputs": [
        {
          "internalType": "address",
          "name": "from",
          "type": "address"
        },
        {
          "internalType": "address",
          "name": "to",
          "type": "address"
        },
        {
          "internalType": "uint256",
          "name": "tokenId",
          "type": "uint256"
        }
      ],
      "name": "safeTransferFrom",
      "outputs": [],
      "stateMutability": "nonpayable",
      "type": "function"
    },
    {
      "inputs": [
        {
          "internalType": "address",
          "name": "from",
          "type": "address"
        },
        {
          "internalType": "address",
          "name": "to",
          "type": "address"
        },
        {
          "internalType": "uint256",
          "name": "tokenId",
          "type": "uint256"
        },
        {
          "internalType": "bytes",
          "name": "data",
          "type": "bytes"
        }
      ],
      "name": "safeTransferFrom",
      "outputs": [],
      "stateMutability": "nonpayable",
      "type": "function"
    },
    {
      "inputs": [
        {
          "internalType": "address",
          "name": "operator",
          "type": "address"
        },
        {
          "internalType": "bool",
          "name": "approved",
          "type": "bool"
        }
      ],
      "name": "setApprovalForAll",
      "outputs": [],
      "stateMutability": "nonpayable",
      "type": "function"
    },
    {
      "inputs": [
        {
          "internalType": "bytes4",
          "name": "interfaceId",
          "type": "bytes4"
        }
      ],
      "name": "supportsInterface",
      "outputs": [
        {
          "internalType": "bool",
          "name": "",
          "type": "bool"
        }
      ],
      "stateMutability": "view",
      "type": "function"
    },
    {
      "inputs": [],
      "name": "symbol",
      "outputs": [
        {
          "internalType": "string",
          "name": "",
          "type": "string"
        }
      ],
      "stateMutability": "view",
      "type": "function"
    },
    {
      "inputs": [
        {
          "internalType": "uint256",
          "name": "_tokenId",
          "type": "uint256"
        }
      ],
      "name": "tokenURI",
      "outputs": [
        {
          "internalType": "string",
          "name": "",
          "type": "string"
        }
      ],
      "stateMutability": "view",
      "type": "function"
    },
    {
      "inputs": [
        {
          "internalType": "address",
          "name": "from",
          "type": "address"
        },
        {
          "internalType": "address",
          "name": "to",
          "type": "address"
        },
        {
          "internalType": "uint256",
          "name": "tokenId",
          "type": "uint256"
        }
      ],
      "name": "transferFrom",
      "outputs": [],
      "stateMutability": "nonpayable",
      "type": "function"
    }
  ],
  "bytecode": "0x60806040523480156200001157600080fd5b5060405162005bca38038062005bca833981810160405281019062000037919062000a8b565b6040518060400160405280600881526020017f4f6e6550696563650000000000000000000000000000000000000000000000008152506040518060400160405280600881526020017f4f4e4550494543450000000000000000000000000000000000000000000000008152508160009081620000b4919062000e4f565b508060019081620000c6919062000e4f565b50505060005b8851811015620003ff57600c6040518060c001604052808381526020018b8481518110620000ff57620000fe62000f36565b5b602002602001015181526020018a848151811062000122576200012162000f36565b5b6020026020010151815260200189848151811062000145576200014462000f36565b5b6020026020010151815260200189848151811062000168576200016762000f36565b5b602002602001015181526020018884815181106200018b576200018a62000f36565b5b60200260200101518152509080600181540180825580915050600190039060005260206000209060060201600090919091909150600082015181600001556020820151816001019081620001e0919062000e4f565b506040820151816002019081620001f8919062000e4f565b50606082015181600301556080820151816004015560a0820151816005015550506000600c828154811062000232576200023162000f36565b5b90600052602060002090600602016040518060c001604052908160008201548152602001600182018054620002679062000c48565b80601f0160208091040260200160405190810160405280929190818152602001828054620002959062000c48565b8015620002e65780601f10620002ba57610100808354040283529160200191620002e6565b820191906000526020600020905b815481529060010190602001808311620002c857829003601f168201915b50505050508152602001600282018054620003019062000c48565b80601f01602080910402602001604051908101604052809291908181526020018280546200032f9062000c48565b8015620003805780601f10620003545761010080835404028352916020019162000380565b820191906000526020600020905b8154815290600101906020018083116200036257829003601f168201915b5050505050815260200160038201548152602001600482015481526020016005820154815250509050620003e760405180606001604052806025815260200162005b7b602591398260200151836060015184604001516200060060201b62001c381760201c565b50600181620003f7919062000f94565b9050620000cc565b5062000417600b620006ac60201b62001cda1760201c565b6040518060a00160405280858152602001848152602001838152602001838152602001828152506006600082015181600001908162000457919062000e4f565b5060208201518160010190816200046f919062000e4f565b50604082015181600201556060820151816003015560808201518160040155905050620005f26040518060600160405280602a815260200162005ba0602a913960066000018054620004c19062000c48565b80601f0160208091040260200160405190810160405280929190818152602001828054620004ef9062000c48565b8015620005405780601f10620005145761010080835404028352916020019162000540565b820191906000526020600020905b8154815290600101906020018083116200052257829003601f168201915b5050505050600660020154600660010180546200055d9062000c48565b80601f01602080910402602001604051908101604052809291908181526020018280546200058b9062000c48565b8015620005dc5780601f10620005b057610100808354040283529160200191620005dc565b820191906000526020600020905b815481529060010190602001808311620005be57829003601f168201915b50505050506200060060201b62001c381760201c565b505050505050505062001094565b620006a6848484846040516024016200061d949392919062001032565b6040516020818303038152906040527f5d1a971a000000000000000000000000000000000000000000000000000000007bffffffffffffffffffffffffffffffffffffffffffffffffffffffff19166020820180517bffffffffffffffffffffffffffffffffffffffffffffffffffffffff8381831617835250505050620006c260201b60201c565b50505050565b6001816000016000828254019250508190555050565b60008151905060006a636f6e736f6c652e6c6f679050602083016000808483855afa5050505050565b6000604051905090565b600080fd5b600080fd5b600080fd5b6000601f19601f8301169050919050565b7f4e487b7100000000000000000000000000000000000000000000000000000000600052604160045260246000fd5b6200074f8262000704565b810181811067ffffffffffffffff8211171562000771576200077062000715565b5b80604052505050565b600062000786620006eb565b905062000794828262000744565b919050565b600067ffffffffffffffff821115620007b757620007b662000715565b5b602082029050602081019050919050565b600080fd5b600080fd5b600067ffffffffffffffff821115620007f057620007ef62000715565b5b620007fb8262000704565b9050602081019050919050565b60005b83811015620008285780820151818401526020810190506200080b565b60008484015250505050565b60006200084b6200084584620007d2565b6200077a565b9050828152602081018484840111156200086a5762000869620007cd565b5b6200087784828562000808565b509392505050565b600082601f830112620008975762000896620006ff565b5b8151620008a984826020860162000834565b91505092915050565b6000620008c9620008c38462000799565b6200077a565b90508083825260208201905060208402830185811115620008ef57620008ee620007c8565b5b835b818110156200093d57805167ffffffffffffffff811115620009185762000917620006ff565b5b8086016200092789826200087f565b85526020850194505050602081019050620008f1565b5050509392505050565b600082601f8301126200095f576200095e620006ff565b5b815162000971848260208601620008b2565b91505092915050565b600067ffffffffffffffff82111562000998576200099762000715565b5b602082029050602081019050919050565b6000819050919050565b620009be81620009a9565b8114620009ca57600080fd5b50565b600081519050620009de81620009b3565b92915050565b6000620009fb620009f5846200097a565b6200077a565b9050808382526020820190506020840283018581111562000a215762000a20620007c8565b5b835b8181101562000a4e578062000a398882620009cd565b84526020840193505060208101905062000a23565b5050509392505050565b600082601f83011262000a705762000a6f620006ff565b5b815162000a82848260208601620009e4565b91505092915050565b600080600080600080600080610100898b03121562000aaf5762000aae620006f5565b5b600089015167ffffffffffffffff81111562000ad05762000acf620006fa565b5b62000ade8b828c0162000947565b985050602089015167ffffffffffffffff81111562000b025762000b01620006fa565b5b62000b108b828c0162000947565b975050604089015167ffffffffffffffff81111562000b345762000b33620006fa565b5b62000b428b828c0162000a58565b965050606089015167ffffffffffffffff81111562000b665762000b65620006fa565b5b62000b748b828c0162000a58565b955050608089015167ffffffffffffffff81111562000b985762000b97620006fa565b5b62000ba68b828c016200087f565b94505060a089015167ffffffffffffffff81111562000bca5762000bc9620006fa565b5b62000bd88b828c016200087f565b93505060c062000beb8b828c01620009cd565b92505060e062000bfe8b828c01620009cd565b9150509295985092959890939650565b600081519050919050565b7f4e487b7100000000000000000000000000000000000000000000000000000000600052602260045260246000fd5b6000600282049050600182168062000c6157607f821691505b60208210810362000c775762000c7662000c19565b5b50919050565b60008190508160005260206000209050919050565b60006020601f8301049050919050565b600082821b905092915050565b60006008830262000ce17fffffffffffffffffffffffffffffffffffffffffffffffffffffffffffffffff8262000ca2565b62000ced868362000ca2565b95508019841693508086168417925050509392505050565b6000819050919050565b600062000d3062000d2a62000d2484620009a9565b62000d05565b620009a9565b9050919050565b6000819050919050565b62000d4c8362000d0f565b62000d6462000d5b8262000d37565b84845462000caf565b825550505050565b600090565b62000d7b62000d6c565b62000d8881848462000d41565b505050565b5b8181101562000db05762000da460008262000d71565b60018101905062000d8e565b5050565b601f82111562000dff5762000dc98162000c7d565b62000dd48462000c92565b8101602085101562000de4578190505b62000dfc62000df38562000c92565b83018262000d8d565b50505b505050565b600082821c905092915050565b600062000e246000198460080262000e04565b1980831691505092915050565b600062000e3f838362000e11565b9150826002028217905092915050565b62000e5a8262000c0e565b67ffffffffffffffff81111562000e765762000e7562000715565b5b62000e82825462000c48565b62000e8f82828562000db4565b600060209050601f83116001811462000ec7576000841562000eb2578287015190505b62000ebe858262000e31565b86555062000f2e565b601f19841662000ed78662000c7d565b60005b8281101562000f015784890151825560018201915060208501945060208101905062000eda565b8683101562000f21578489015162000f1d601f89168262000e11565b8355505b6001600288020188555050505b505050505050565b7f4e487b7100000000000000000000000000000000000000000000000000000000600052603260045260246000fd5b7f4e487b7100000000000000000000000000000000000000000000000000000000600052601160045260246000fd5b600062000fa182620009a9565b915062000fae83620009a9565b925082820190508082111562000fc95762000fc862000f65565b5b92915050565b600082825260208201905092915050565b600062000fed8262000c0e565b62000ff9818562000fcf565b93506200100b81856020860162000808565b620010168162000704565b840191505092915050565b6200102c81620009a9565b82525050565b600060808201905081810360008301526200104e818762000fe0565b9050818103602083015262001064818662000fe0565b905062001075604083018562001021565b818103606083015262001089818462000fe0565b905095945050505050565b614ad780620010a46000396000f3fe608060405234801561001057600080fd5b50600436106101425760003560e01c806398da4c95116100b8578063c87b56dd1161007c578063c87b56dd14610392578063c8cf27f4146103c2578063d4f24c5b146103e0578063e985e9c5146103ea578063f7a0a8241461041a578063f8b81ef71461044f57610142565b806398da4c95146102e5578063a22cb4651461031a578063a9c3267914610336578063b88d4fde14610358578063b953084e1461037457610142565b806323b872dd1161010a57806323b872dd146101ff57806342842e0e1461021b5780636352211e1461023757806370a08231146102675780637df124a11461029757806395d89b41146102c757610142565b806301ffc9a7146101475780630665f9611461017757806306fdde0314610195578063081812fc146101b3578063095ea7b3146101e3575b600080fd5b610161600480360381019061015c9190612f23565b61046b565b60405161016e9190612f6b565b60405180910390f35b61017f61054d565b60405161018c91906130ac565b60405180910390f35b61019d6106a9565b6040516101aa9190613118565b60405180910390f35b6101cd60048036038101906101c89190613166565b61073b565b6040516101da91906131d4565b60405180910390f35b6101fd60048036038101906101f8919061321b565b610781565b005b6102196004803603810190610214919061325b565b610898565b005b6102356004803603810190610230919061325b565b6108f8565b005b610251600480360381019061024c9190613166565b610918565b60405161025e91906131d4565b60405180910390f35b610281600480360381019061027c91906132ae565b61099e565b60405161028e91906132ea565b60405180910390f35b6102b160048036038101906102ac91906132ae565b610a55565b6040516102be91906132ea565b60405180910390f35b6102cf610a6d565b6040516102dc9190613118565b60405180910390f35b6102ff60048036038101906102fa9190613166565b610aff565b60405161031196959493929190613305565b60405180910390f35b610334600480360381019061032f91906133a0565b610c4b565b005b61033e610c61565b60405161034f9594939291906133e0565b60405180910390f35b610372600480360381019061036d9190613576565b610d95565b005b61037c610df7565b604051610389919061374b565b60405180910390f35b6103ac60048036038101906103a79190613166565b610fa2565b6040516103b99190613118565b60405180910390f35b6103ca6111bd565b6040516103d791906137fd565b60405180910390f35b6103e8611395565b005b61040460048036038101906103ff919061381f565b611720565b6040516104119190612f6b565b60405180910390f35b610434600480360381019061042f9190613166565b6117b4565b60405161044696959493929190613305565b60405180910390f35b61046960048036038101906104649190613166565b611910565b005b60007f80ac58cd000000000000000000000000000000000000000000000000000000007bffffffffffffffffffffffffffffffffffffffffffffffffffffffff1916827bffffffffffffffffffffffffffffffffffffffffffffffffffffffff1916148061053657507f5b5e139f000000000000000000000000000000000000000000000000000000007bffffffffffffffffffffffffffffffffffffffffffffffffffffffff1916827bffffffffffffffffffffffffffffffffffffffffffffffffffffffff1916145b80610546575061054582611cf0565b5b9050919050565b610555612e52565b60066040518060a00160405290816000820180546105729061388e565b80601f016020809104026020016040519081016040528092919081815260200182805461059e9061388e565b80156105eb5780601f106105c0576101008083540402835291602001916105eb565b820191906000526020600020905b8154815290600101906020018083116105ce57829003601f168201915b505050505081526020016001820180546106049061388e565b80601f01602080910402602001604051908101604052809291908181526020018280546106309061388e565b801561067d5780601f106106525761010080835404028352916020019161067d565b820191906000526020600020905b81548152906001019060200180831161066057829003601f168201915b505050505081526020016002820154815260200160038201548152602001600482015481525050905090565b6060600080546106b89061388e565b80601f01602080910402602001604051908101604052809291908181526020018280546106e49061388e565b80156107315780601f1061070657610100808354040283529160200191610731565b820191906000526020600020905b81548152906001019060200180831161071457829003601f168201915b5050505050905090565b600061074682611d5a565b6004600083815260200190815260200160002060009054906101000a900473ffffffffffffffffffffffffffffffffffffffff169050919050565b600061078c82610918565b90508073ffffffffffffffffffffffffffffffffffffffff168373ffffffffffffffffffffffffffffffffffffffff16036107fc576040517f08c379a00000000000000000000000000000000000000000000000000000000081526004016107f390613931565b60405180910390fd5b8073ffffffffffffffffffffffffffffffffffffffff1661081b611da5565b73ffffffffffffffffffffffffffffffffffffffff16148061084a575061084981610844611da5565b611720565b5b610889576040517f08c379a0000000000000000000000000000000000000000000000000000000008152600401610880906139c3565b60405180910390fd5b6108938383611dad565b505050565b6108a96108a3611da5565b82611e66565b6108e8576040517f08c379a00000000000000000000000000000000000000000000000000000000081526004016108df90613a55565b60405180910390fd5b6108f3838383611efb565b505050565b61091383838360405180602001604052806000815250610d95565b505050565b600080610924836121f4565b9050600073ffffffffffffffffffffffffffffffffffffffff168173ffffffffffffffffffffffffffffffffffffffff1603610995576040517f08c379a000000000000000000000000000000000000000000000000000000000815260040161098c90613ac1565b60405180910390fd5b80915050919050565b60008073ffffffffffffffffffffffffffffffffffffffff168273ffffffffffffffffffffffffffffffffffffffff1603610a0e576040517f08c379a0000000000000000000000000000000000000000000000000000000008152600401610a0590613b53565b60405180910390fd5b600360008373ffffffffffffffffffffffffffffffffffffffff1673ffffffffffffffffffffffffffffffffffffffff168152602001908152602001600020549050919050565b600e6020528060005260406000206000915090505481565b606060018054610a7c9061388e565b80601f0160208091040260200160405190810160405280929190818152602001828054610aa89061388e565b8015610af55780601f10610aca57610100808354040283529160200191610af5565b820191906000526020600020905b815481529060010190602001808311610ad857829003601f168201915b5050505050905090565b600d602052806000526040600020600091509050806000015490806001018054610b289061388e565b80601f0160208091040260200160405190810160405280929190818152602001828054610b549061388e565b8015610ba15780601f10610b7657610100808354040283529160200191610ba1565b820191906000526020600020905b815481529060010190602001808311610b8457829003601f168201915b505050505090806002018054610bb69061388e565b80601f0160208091040260200160405190810160405280929190818152602001828054610be29061388e565b8015610c2f5780601f10610c0457610100808354040283529160200191610c2f565b820191906000526020600020905b815481529060010190602001808311610c1257829003601f168201915b5050505050908060030154908060040154908060050154905086565b610c5d610c56611da5565b8383612231565b5050565b6006806000018054610c729061388e565b80601f0160208091040260200160405190810160405280929190818152602001828054610c9e9061388e565b8015610ceb5780601f10610cc057610100808354040283529160200191610ceb565b820191906000526020600020905b815481529060010190602001808311610cce57829003601f168201915b505050505090806001018054610d009061388e565b80601f0160208091040260200160405190810160405280929190818152602001828054610d2c9061388e565b8015610d795780601f10610d4e57610100808354040283529160200191610d79565b820191906000526020600020905b815481529060010190602001808311610d5c57829003601f168201915b5050505050908060020154908060030154908060040154905085565b610da6610da0611da5565b83611e66565b610de5576040517f08c379a0000000000000000000000000000000000000000000000000000000008152600401610ddc90613a55565b60405180910390fd5b610df18484848461239d565b50505050565b6060600c805480602002602001604051908101604052809291908181526020016000905b82821015610f9957838290600052602060002090600602016040518060c001604052908160008201548152602001600182018054610e589061388e565b80601f0160208091040260200160405190810160405280929190818152602001828054610e849061388e565b8015610ed15780601f10610ea657610100808354040283529160200191610ed1565b820191906000526020600020905b815481529060010190602001808311610eb457829003601f168201915b50505050508152602001600282018054610eea9061388e565b80601f0160208091040260200160405190810160405280929190818152602001828054610f169061388e565b8015610f635780601f10610f3857610100808354040283529160200191610f63565b820191906000526020600020905b815481529060010190602001808311610f4657829003601f168201915b50505050508152602001600382015481526020016004820154815260200160058201548152505081526020019060010190610e1b565b50505050905090565b60606000600d60008481526020019081526020016000206040518060c001604052908160008201548152602001600182018054610fde9061388e565b80601f016020809104026020016040519081016040528092919081815260200182805461100a9061388e565b80156110575780601f1061102c57610100808354040283529160200191611057565b820191906000526020600020905b81548152906001019060200180831161103a57829003601f168201915b505050505081526020016002820180546110709061388e565b80601f016020809104026020016040519081016040528092919081815260200182805461109c9061388e565b80156110e95780601f106110be576101008083540402835291602001916110e9565b820191906000526020600020905b8154815290600101906020018083116110cc57829003601f168201915b5050505050815260200160038201548152602001600482015481526020016005820154815250509050600061112182606001516123f9565b9050600061113283608001516123f9565b905060006111438460a001516123f9565b905060006111898560200151611158896123f9565b876040015187878760405160200161117596959493929190613e35565b6040516020818303038152906040526124c7565b905060008160405160200161119e9190613f26565b6040516020818303038152906040529050809650505050505050919050565b6111c5612e81565b6000600e60003373ffffffffffffffffffffffffffffffffffffffff1673ffffffffffffffffffffffffffffffffffffffff168152602001908152602001600020549050600081111561138457600d60008281526020019081526020016000206040518060c00160405290816000820154815260200160018201805461124a9061388e565b80601f01602080910402602001604051908101604052809291908181526020018280546112769061388e565b80156112c35780601f10611298576101008083540402835291602001916112c3565b820191906000526020600020905b8154815290600101906020018083116112a657829003601f168201915b505050505081526020016002820180546112dc9061388e565b80601f01602080910402602001604051908101604052809291908181526020018280546113089061388e565b80156113555780601f1061132a57610100808354040283529160200191611355565b820191906000526020600020905b81548152906001019060200180831161133857829003601f168201915b505050505081526020016003820154815260200160048201548152602001600582015481525050915050611392565b61138c612e81565b80925050505b90565b6000600e60003373ffffffffffffffffffffffffffffffffffffffff1673ffffffffffffffffffffffffffffffffffffffff1681526020019081526020016000205490506000600d600083815260200190815260200160002090506114a86040518060600160405280603c8152602001614a66603c913982600101805461141b9061388e565b80601f01602080910402602001604051908101604052809291908181526020018280546114479061388e565b80156114945780601f1061146957610100808354040283529160200191611494565b820191906000526020600020905b81548152906001019060200180831161147757829003601f168201915b50505050508360030154846005015461265e565b6115806040518060400160405280601b81526020017f426f73732025732068617320257320485020616e642025732041440000000000815250600660000180546114f19061388e565b80601f016020809104026020016040519081016040528092919081815260200182805461151d9061388e565b801561156a5780601f1061153f5761010080835404028352916020019161156a565b820191906000526020600020905b81548152906001019060200180831161154d57829003601f168201915b505050505060066002015460066004015461265e565b60008160030154116115c7576040517f08c379a00000000000000000000000000000000000000000000000000000000081526004016115be90613fba565b60405180910390fd5b60006006600201541161160f576040517f08c379a00000000000000000000000000000000000000000000000000000000081526004016116069061404c565b60405180910390fd5b8060050154600660020154101561163057600060066002018190555061164f565b8060050154600660020154611645919061409b565b6006600201819055505b6006600401548160030154101561166f576000816003018190555061168d565b6006600401548160030154611684919061409b565b81600301819055505b6116b46040518060600160405280602581526020016149ab60259139600660020154612700565b6116da604051806060016040528060288152602001614a10602891398260030154612700565b7f838ab28464562786a6c4ab2311964b82fa60bd9b14aa7e856af1f3f18d41a41460066002015482600301546040516117149291906140cf565b60405180910390a15050565b6000600560008473ffffffffffffffffffffffffffffffffffffffff1673ffffffffffffffffffffffffffffffffffffffff16815260200190815260200160002060008373ffffffffffffffffffffffffffffffffffffffff1673ffffffffffffffffffffffffffffffffffffffff16815260200190815260200160002060009054906101000a900460ff16905092915050565b600c81815481106117c457600080fd5b90600052602060002090600602016000915090508060000154908060010180546117ed9061388e565b80601f01602080910402602001604051908101604052809291908181526020018280546118199061388e565b80156118665780601f1061183b57610100808354040283529160200191611866565b820191906000526020600020905b81548152906001019060200180831161184957829003601f168201915b50505050509080600201805461187b9061388e565b80601f01602080910402602001604051908101604052809291908181526020018280546118a79061388e565b80156118f45780601f106118c9576101008083540402835291602001916118f4565b820191906000526020600020905b8154815290600101906020018083116118d757829003601f168201915b5050505050908060030154908060040154908060050154905086565b600061191c600b61279c565b905061192833826127aa565b6040518060c00160405280838152602001600c848154811061194d5761194c6140f8565b5b906000526020600020906006020160010180546119699061388e565b80601f01602080910402602001604051908101604052809291908181526020018280546119959061388e565b80156119e25780601f106119b7576101008083540402835291602001916119e2565b820191906000526020600020905b8154815290600101906020018083116119c557829003601f168201915b50505050508152602001600c8481548110611a00576119ff6140f8565b5b90600052602060002090600602016002018054611a1c9061388e565b80601f0160208091040260200160405190810160405280929190818152602001828054611a489061388e565b8015611a955780601f10611a6a57610100808354040283529160200191611a95565b820191906000526020600020905b815481529060010190602001808311611a7857829003601f168201915b50505050508152602001600c8481548110611ab357611ab26140f8565b5b9060005260206000209060060201600301548152602001600c8481548110611ade57611add6140f8565b5b9060005260206000209060060201600401548152602001600c8481548110611b0957611b086140f8565b5b906000526020600020906006020160050154815250600d6000838152602001908152602001600020600082015181600001556020820151816001019081611b5091906142d3565b506040820151816002019081611b6691906142d3565b50606082015181600301556080820151816004015560a08201518160050155905050611bab6040518060600160405280602e8152602001614a38602e913982846127c8565b80600e60003373ffffffffffffffffffffffffffffffffffffffff1673ffffffffffffffffffffffffffffffffffffffff16815260200190815260200160002081905550611bf9600b611cda565b7f4bc303fd457a97b4691b9af582ce71868a3d258638c8d4f8c60988a0f0bfb8cd338284604051611c2c939291906143a5565b60405180910390a15050565b611cd484848484604051602401611c5294939291906143dc565b6040516020818303038152906040527f5d1a971a000000000000000000000000000000000000000000000000000000007bffffffffffffffffffffffffffffffffffffffffffffffffffffffff19166020820180517bffffffffffffffffffffffffffffffffffffffffffffffffffffffff8381831617835250505050612867565b50505050565b6001816000016000828254019250508190555050565b60007f01ffc9a7000000000000000000000000000000000000000000000000000000007bffffffffffffffffffffffffffffffffffffffffffffffffffffffff1916827bffffffffffffffffffffffffffffffffffffffffffffffffffffffff1916149050919050565b611d6381612890565b611da2576040517f08c379a0000000000000000000000000000000000000000000000000000000008152600401611d9990613ac1565b60405180910390fd5b50565b600033905090565b816004600083815260200190815260200160002060006101000a81548173ffffffffffffffffffffffffffffffffffffffff021916908373ffffffffffffffffffffffffffffffffffffffff160217905550808273ffffffffffffffffffffffffffffffffffffffff16611e2083610918565b73ffffffffffffffffffffffffffffffffffffffff167f8c5be1e5ebec7d5bd14f71427d1e84f3dd0314c0f7b2291e5b200ac8c7c3b92560405160405180910390a45050565b600080611e7283610918565b90508073ffffffffffffffffffffffffffffffffffffffff168473ffffffffffffffffffffffffffffffffffffffff161480611eb45750611eb38185611720565b5b80611ef257508373ffffffffffffffffffffffffffffffffffffffff16611eda8461073b565b73ffffffffffffffffffffffffffffffffffffffff16145b91505092915050565b8273ffffffffffffffffffffffffffffffffffffffff16611f1b82610918565b73ffffffffffffffffffffffffffffffffffffffff1614611f71576040517f08c379a0000000000000000000000000000000000000000000000000000000008152600401611f68906144a8565b60405180910390fd5b600073ffffffffffffffffffffffffffffffffffffffff168273ffffffffffffffffffffffffffffffffffffffff1603611fe0576040517f08c379a0000000000000000000000000000000000000000000000000000000008152600401611fd79061453a565b60405180910390fd5b611fed83838360016128d1565b8273ffffffffffffffffffffffffffffffffffffffff1661200d82610918565b73ffffffffffffffffffffffffffffffffffffffff1614612063576040517f08c379a000000000000000000000000000000000000000000000000000000000815260040161205a906144a8565b60405180910390fd5b6004600082815260200190815260200160002060006101000a81549073ffffffffffffffffffffffffffffffffffffffff02191690556001600360008573ffffffffffffffffffffffffffffffffffffffff1673ffffffffffffffffffffffffffffffffffffffff168152602001908152602001600020600082825403925050819055506001600360008473ffffffffffffffffffffffffffffffffffffffff1673ffffffffffffffffffffffffffffffffffffffff16815260200190815260200160002060008282540192505081905550816002600083815260200190815260200160002060006101000a81548173ffffffffffffffffffffffffffffffffffffffff021916908373ffffffffffffffffffffffffffffffffffffffff160217905550808273ffffffffffffffffffffffffffffffffffffffff168473ffffffffffffffffffffffffffffffffffffffff167fddf252ad1be2c89b69c2b068fc378daa952ba7f163c4a11628f55a4df523b3ef60405160405180910390a46121ef83838360016128d7565b505050565b60006002600083815260200190815260200160002060009054906101000a900473ffffffffffffffffffffffffffffffffffffffff169050919050565b8173ffffffffffffffffffffffffffffffffffffffff168373ffffffffffffffffffffffffffffffffffffffff160361229f576040517f08c379a0000000000000000000000000000000000000000000000000000000008152600401612296906145a6565b60405180910390fd5b80600560008573ffffffffffffffffffffffffffffffffffffffff1673ffffffffffffffffffffffffffffffffffffffff16815260200190815260200160002060008473ffffffffffffffffffffffffffffffffffffffff1673ffffffffffffffffffffffffffffffffffffffff16815260200190815260200160002060006101000a81548160ff0219169083151502179055508173ffffffffffffffffffffffffffffffffffffffff168373ffffffffffffffffffffffffffffffffffffffff167f17307eab39ab6107e8899845ad3d59bd9653f200f220920489ca2b5937696c31836040516123909190612f6b565b60405180910390a3505050565b6123a8848484611efb565b6123b4848484846128dd565b6123f3576040517f08c379a00000000000000000000000000000000000000000000000000000000081526004016123ea90614638565b60405180910390fd5b50505050565b60606000600161240884612a64565b01905060008167ffffffffffffffff8111156124275761242661344b565b5b6040519080825280601f01601f1916602001820160405280156124595781602001600182028036833780820191505090505b509050600082602001820190505b6001156124bc578080600190039150507f3031323334353637383961626364656600000000000000000000000000000000600a86061a8153600a85816124b0576124af614658565b5b04945060008503612467575b819350505050919050565b6060600082519050600081036124ef5760405180602001604052806000815250915050612659565b600060036002836125009190614687565b61250a91906146bb565b600461251691906146ec565b905060006020826125279190614687565b67ffffffffffffffff8111156125405761253f61344b565b5b6040519080825280601f01601f1916602001820160405280156125725781602001600182028036833780820191505090505b50905060006040518060600160405280604081526020016149d0604091399050600181016020830160005b868110156126165760038101905062ffffff818a015116603f8160121c168401518060081b905060ff603f83600c1c1686015116810190508060081b905060ff603f8360061c1686015116810190508060081b905060ff603f831686015116810190508060e01b9050808452600484019350505061259d565b50600386066001811461263057600281146126405761264b565b613d3d60f01b600283035261264b565b603d60f81b60018303525b508484525050819450505050505b919050565b6126fa84848484604051602401612678949392919061472e565b6040516020818303038152906040527ff45d7d2c000000000000000000000000000000000000000000000000000000007bffffffffffffffffffffffffffffffffffffffffffffffffffffffff19166020820180517bffffffffffffffffffffffffffffffffffffffffffffffffffffffff8381831617835250505050612867565b50505050565b6127988282604051602401612716929190614781565b6040516020818303038152906040527fb60e72cc000000000000000000000000000000000000000000000000000000007bffffffffffffffffffffffffffffffffffffffffffffffffffffffff19166020820180517bffffffffffffffffffffffffffffffffffffffffffffffffffffffff8381831617835250505050612867565b5050565b600081600001549050919050565b6127c4828260405180602001604052806000815250612bb7565b5050565b6128628383836040516024016127e0939291906147b1565b6040516020818303038152906040527fca47c4eb000000000000000000000000000000000000000000000000000000007bffffffffffffffffffffffffffffffffffffffffffffffffffffffff19166020820180517bffffffffffffffffffffffffffffffffffffffffffffffffffffffff8381831617835250505050612867565b505050565b60008151905060006a636f6e736f6c652e6c6f679050602083016000808483855afa5050505050565b60008073ffffffffffffffffffffffffffffffffffffffff166128b2836121f4565b73ffffffffffffffffffffffffffffffffffffffff1614159050919050565b50505050565b50505050565b60006128fe8473ffffffffffffffffffffffffffffffffffffffff16612c12565b15612a57578373ffffffffffffffffffffffffffffffffffffffff1663150b7a02612927611da5565b8786866040518563ffffffff1660e01b81526004016129499493929190614844565b6020604051808303816000875af192505050801561298557506040513d601f19601f8201168201806040525081019061298291906148a5565b60015b612a07573d80600081146129b5576040519150601f19603f3d011682016040523d82523d6000602084013e6129ba565b606091505b5060008151036129ff576040517f08c379a00000000000000000000000000000000000000000000000000000000081526004016129f690614638565b60405180910390fd5b805181602001fd5b63150b7a0260e01b7bffffffffffffffffffffffffffffffffffffffffffffffffffffffff1916817bffffffffffffffffffffffffffffffffffffffffffffffffffffffff191614915050612a5c565b600190505b949350505050565b600080600090507a184f03e93ff9f4daa797ed6e38ed64bf6a1f0100000000000000008310612ac2577a184f03e93ff9f4daa797ed6e38ed64bf6a1f0100000000000000008381612ab857612ab7614658565b5b0492506040810190505b6d04ee2d6d415b85acef81000000008310612aff576d04ee2d6d415b85acef81000000008381612af557612af4614658565b5b0492506020810190505b662386f26fc100008310612b2e57662386f26fc100008381612b2457612b23614658565b5b0492506010810190505b6305f5e1008310612b57576305f5e1008381612b4d57612b4c614658565b5b0492506008810190505b6127108310612b7c576127108381612b7257612b71614658565b5b0492506004810190505b60648310612b9f5760648381612b9557612b94614658565b5b0492506002810190505b600a8310612bae576001810190505b80915050919050565b612bc18383612c35565b612bce60008484846128dd565b612c0d576040517f08c379a0000000000000000000000000000000000000000000000000000000008152600401612c0490614638565b60405180910390fd5b505050565b6000808273ffffffffffffffffffffffffffffffffffffffff163b119050919050565b600073ffffffffffffffffffffffffffffffffffffffff168273ffffffffffffffffffffffffffffffffffffffff1603612ca4576040517f08c379a0000000000000000000000000000000000000000000000000000000008152600401612c9b9061491e565b60405180910390fd5b612cad81612890565b15612ced576040517f08c379a0000000000000000000000000000000000000000000000000000000008152600401612ce49061498a565b60405180910390fd5b612cfb6000838360016128d1565b612d0481612890565b15612d44576040517f08c379a0000000000000000000000000000000000000000000000000000000008152600401612d3b9061498a565b60405180910390fd5b6001600360008473ffffffffffffffffffffffffffffffffffffffff1673ffffffffffffffffffffffffffffffffffffffff16815260200190815260200160002060008282540192505081905550816002600083815260200190815260200160002060006101000a81548173ffffffffffffffffffffffffffffffffffffffff021916908373ffffffffffffffffffffffffffffffffffffffff160217905550808273ffffffffffffffffffffffffffffffffffffffff16600073ffffffffffffffffffffffffffffffffffffffff167fddf252ad1be2c89b69c2b068fc378daa952ba7f163c4a11628f55a4df523b3ef60405160405180910390a4612e4e6000838360016128d7565b5050565b6040518060a0016040528060608152602001606081526020016000815260200160008152602001600081525090565b6040518060c001604052806000815260200160608152602001606081526020016000815260200160008152602001600081525090565b6000604051905090565b600080fd5b600080fd5b60007fffffffff0000000000000000000000000000000000000000000000000000000082169050919050565b612f0081612ecb565b8114612f0b57600080fd5b50565b600081359050612f1d81612ef7565b92915050565b600060208284031215612f3957612f38612ec1565b5b6000612f4784828501612f0e565b91505092915050565b60008115159050919050565b612f6581612f50565b82525050565b6000602082019050612f806000830184612f5c565b92915050565b600081519050919050565b600082825260208201905092915050565b60005b83811015612fc0578082015181840152602081019050612fa5565b60008484015250505050565b6000601f19601f8301169050919050565b6000612fe882612f86565b612ff28185612f91565b9350613002818560208601612fa2565b61300b81612fcc565b840191505092915050565b6000819050919050565b61302981613016565b82525050565b600060a083016000830151848203600086015261304c8282612fdd565b915050602083015184820360208601526130668282612fdd565b915050604083015161307b6040860182613020565b50606083015161308e6060860182613020565b5060808301516130a16080860182613020565b508091505092915050565b600060208201905081810360008301526130c6818461302f565b905092915050565b600082825260208201905092915050565b60006130ea82612f86565b6130f481856130ce565b9350613104818560208601612fa2565b61310d81612fcc565b840191505092915050565b6000602082019050818103600083015261313281846130df565b905092915050565b61314381613016565b811461314e57600080fd5b50565b6000813590506131608161313a565b92915050565b60006020828403121561317c5761317b612ec1565b5b600061318a84828501613151565b91505092915050565b600073ffffffffffffffffffffffffffffffffffffffff82169050919050565b60006131be82613193565b9050919050565b6131ce816131b3565b82525050565b60006020820190506131e960008301846131c5565b92915050565b6131f8816131b3565b811461320357600080fd5b50565b600081359050613215816131ef565b92915050565b6000806040838503121561323257613231612ec1565b5b600061324085828601613206565b925050602061325185828601613151565b9150509250929050565b60008060006060848603121561327457613273612ec1565b5b600061328286828701613206565b935050602061329386828701613206565b92505060406132a486828701613151565b9150509250925092565b6000602082840312156132c4576132c3612ec1565b5b60006132d284828501613206565b91505092915050565b6132e481613016565b82525050565b60006020820190506132ff60008301846132db565b92915050565b600060c08201905061331a60008301896132db565b818103602083015261332c81886130df565b9050818103604083015261334081876130df565b905061334f60608301866132db565b61335c60808301856132db565b61336960a08301846132db565b979650505050505050565b61337d81612f50565b811461338857600080fd5b50565b60008135905061339a81613374565b92915050565b600080604083850312156133b7576133b6612ec1565b5b60006133c585828601613206565b92505060206133d68582860161338b565b9150509250929050565b600060a08201905081810360008301526133fa81886130df565b9050818103602083015261340e81876130df565b905061341d60408301866132db565b61342a60608301856132db565b61343760808301846132db565b9695505050505050565b600080fd5b600080fd5b7f4e487b7100000000000000000000000000000000000000000000000000000000600052604160045260246000fd5b61348382612fcc565b810181811067ffffffffffffffff821117156134a2576134a161344b565b5b80604052505050565b60006134b5612eb7565b90506134c1828261347a565b919050565b600067ffffffffffffffff8211156134e1576134e061344b565b5b6134ea82612fcc565b9050602081019050919050565b82818337600083830152505050565b6000613519613514846134c6565b6134ab565b90508281526020810184848401111561353557613534613446565b5b6135408482856134f7565b509392505050565b600082601f83011261355d5761355c613441565b5b813561356d848260208601613506565b91505092915050565b600080600080608085870312156135905761358f612ec1565b5b600061359e87828801613206565b94505060206135af87828801613206565b93505060406135c087828801613151565b925050606085013567ffffffffffffffff8111156135e1576135e0612ec6565b5b6135ed87828801613548565b91505092959194509250565b600081519050919050565b600082825260208201905092915050565b6000819050602082019050919050565b600060c08301600083015161363d6000860182613020565b50602083015184820360208601526136558282612fdd565b9150506040830151848203604086015261366f8282612fdd565b91505060608301516136846060860182613020565b5060808301516136976080860182613020565b5060a08301516136aa60a0860182613020565b508091505092915050565b60006136c18383613625565b905092915050565b6000602082019050919050565b60006136e1826135f9565b6136eb8185613604565b9350836020820285016136fd85613615565b8060005b85811015613739578484038952815161371a85826136b5565b9450613725836136c9565b925060208a01995050600181019050613701565b50829750879550505050505092915050565b6000602082019050818103600083015261376581846136d6565b905092915050565b600060c0830160008301516137856000860182613020565b506020830151848203602086015261379d8282612fdd565b915050604083015184820360408601526137b78282612fdd565b91505060608301516137cc6060860182613020565b5060808301516137df6080860182613020565b5060a08301516137f260a0860182613020565b508091505092915050565b60006020820190508181036000830152613817818461376d565b905092915050565b6000806040838503121561383657613835612ec1565b5b600061384485828601613206565b925050602061385585828601613206565b9150509250929050565b7f4e487b7100000000000000000000000000000000000000000000000000000000600052602260045260246000fd5b600060028204905060018216806138a657607f821691505b6020821081036138b9576138b861385f565b5b50919050565b7f4552433732313a20617070726f76616c20746f2063757272656e74206f776e6560008201527f7200000000000000000000000000000000000000000000000000000000000000602082015250565b600061391b6021836130ce565b9150613926826138bf565b604082019050919050565b6000602082019050818103600083015261394a8161390e565b9050919050565b7f4552433732313a20617070726f76652063616c6c6572206973206e6f7420746f60008201527f6b656e206f776e6572206f7220617070726f76656420666f7220616c6c000000602082015250565b60006139ad603d836130ce565b91506139b882613951565b604082019050919050565b600060208201905081810360008301526139dc816139a0565b9050919050565b7f4552433732313a2063616c6c6572206973206e6f7420746f6b656e206f776e6560008201527f72206f7220617070726f76656400000000000000000000000000000000000000602082015250565b6000613a3f602d836130ce565b9150613a4a826139e3565b604082019050919050565b60006020820190508181036000830152613a6e81613a32565b9050919050565b7f4552433732313a20696e76616c696420746f6b656e2049440000000000000000600082015250565b6000613aab6018836130ce565b9150613ab682613a75565b602082019050919050565b60006020820190508181036000830152613ada81613a9e565b9050919050565b7f4552433732313a2061646472657373207a65726f206973206e6f74206120766160008201527f6c6964206f776e65720000000000000000000000000000000000000000000000602082015250565b6000613b3d6029836130ce565b9150613b4882613ae1565b604082019050919050565b60006020820190508181036000830152613b6c81613b30565b9050919050565b600081905092915050565b7f7b226e616d65223a202200000000000000000000000000000000000000000000600082015250565b6000613bb4600a83613b73565b9150613bbf82613b7e565b600a82019050919050565b6000613bd582612f86565b613bdf8185613b73565b9350613bef818560208601612fa2565b80840191505092915050565b7f202d2d204e465420233a20000000000000000000000000000000000000000000600082015250565b6000613c31600b83613b73565b9150613c3c82613bfb565b600b82019050919050565b7f222c20226465736372697074696f6e223a2022416e2065706963204e4654222c60008201527f2022696d616765223a2022697066733a2f2f0000000000000000000000000000602082015250565b6000613ca3603283613b73565b9150613cae82613c47565b603282019050919050565b7f222c202261747472696275746573223a205b207b202274726169745f7479706560008201527f223a20224865616c746820506f696e7473222c202276616c7565223a20000000602082015250565b6000613d15603d83613b73565b9150613d2082613cb9565b603d82019050919050565b7f2c20226d61785f76616c7565223a000000000000000000000000000000000000600082015250565b6000613d61600e83613b73565b9150613d6c82613d2b565b600e82019050919050565b7f7d2c207b202274726169745f74797065223a202241747461636b2044616d616760008201527f65222c202276616c7565223a2000000000000000000000000000000000000000602082015250565b6000613dd3602d83613b73565b9150613dde82613d77565b602d82019050919050565b7f7d205d7d00000000000000000000000000000000000000000000000000000000600082015250565b6000613e1f600483613b73565b9150613e2a82613de9565b600482019050919050565b6000613e4082613ba7565b9150613e4c8289613bca565b9150613e5782613c24565b9150613e638288613bca565b9150613e6e82613c96565b9150613e7a8287613bca565b9150613e8582613d08565b9150613e918286613bca565b9150613e9c82613d54565b9150613ea88285613bca565b9150613eb382613dc6565b9150613ebf8284613bca565b9150613eca82613e12565b9150819050979650505050505050565b7f646174613a6170706c69636174696f6e2f6a736f6e3b6261736536342c000000600082015250565b6000613f10601d83613b73565b9150613f1b82613eda565b601d82019050919050565b6000613f3182613f03565b9150613f3d8284613bca565b915081905092915050565b7f4572726f723a20636861726163746572206d757374206861766520485020746f60008201527f2061747461636b20626f73732e00000000000000000000000000000000000000602082015250565b6000613fa4602d836130ce565b9150613faf82613f48565b604082019050919050565b60006020820190508181036000830152613fd381613f97565b9050919050565b7f4572726f723a20626f7373206d757374206861766520485020746f204174746160008201527f636b20636861726163746572732e000000000000000000000000000000000000602082015250565b6000614036602e836130ce565b915061404182613fda565b604082019050919050565b6000602082019050818103600083015261406581614029565b9050919050565b7f4e487b7100000000000000000000000000000000000000000000000000000000600052601160045260246000fd5b60006140a682613016565b91506140b183613016565b92508282039050818111156140c9576140c861406c565b5b92915050565b60006040820190506140e460008301856132db565b6140f160208301846132db565b9392505050565b7f4e487b7100000000000000000000000000000000000000000000000000000000600052603260045260246000fd5b60008190508160005260206000209050919050565b60006020601f8301049050919050565b600082821b905092915050565b6000600883026141897fffffffffffffffffffffffffffffffffffffffffffffffffffffffffffffffff8261414c565b614193868361414c565b95508019841693508086168417925050509392505050565b6000819050919050565b60006141d06141cb6141c684613016565b6141ab565b613016565b9050919050565b6000819050919050565b6141ea836141b5565b6141fe6141f6826141d7565b848454614159565b825550505050565b600090565b614213614206565b61421e8184846141e1565b505050565b5b818110156142425761423760008261420b565b600181019050614224565b5050565b601f8211156142875761425881614127565b6142618461413c565b81016020851015614270578190505b61428461427c8561413c565b830182614223565b50505b505050565b600082821c905092915050565b60006142aa6000198460080261428c565b1980831691505092915050565b60006142c38383614299565b9150826002028217905092915050565b6142dc82612f86565b67ffffffffffffffff8111156142f5576142f461344b565b5b6142ff825461388e565b61430a828285614246565b600060209050601f83116001811461433d576000841561432b578287015190505b61433585826142b7565b86555061439d565b601f19841661434b86614127565b60005b828110156143735784890151825560018201915060208501945060208101905061434e565b86831015614390578489015161438c601f891682614299565b8355505b6001600288020188555050505b505050505050565b60006060820190506143ba60008301866131c5565b6143c760208301856132db565b6143d460408301846132db565b949350505050565b600060808201905081810360008301526143f681876130df565b9050818103602083015261440a81866130df565b905061441960408301856132db565b818103606083015261442b81846130df565b905095945050505050565b7f4552433732313a207472616e736665722066726f6d20696e636f72726563742060008201527f6f776e6572000000000000000000000000000000000000000000000000000000602082015250565b60006144926025836130ce565b915061449d82614436565b604082019050919050565b600060208201905081810360008301526144c181614485565b9050919050565b7f4552433732313a207472616e7366657220746f20746865207a65726f2061646460008201527f7265737300000000000000000000000000000000000000000000000000000000602082015250565b60006145246024836130ce565b915061452f826144c8565b604082019050919050565b6000602082019050818103600083015261455381614517565b9050919050565b7f4552433732313a20617070726f766520746f2063616c6c657200000000000000600082015250565b60006145906019836130ce565b915061459b8261455a565b602082019050919050565b600060208201905081810360008301526145bf81614583565b9050919050565b7f4552433732313a207472616e7366657220746f206e6f6e20455243373231526560008201527f63656976657220696d706c656d656e7465720000000000000000000000000000602082015250565b60006146226032836130ce565b915061462d826145c6565b604082019050919050565b6000602082019050818103600083015261465181614615565b9050919050565b7f4e487b7100000000000000000000000000000000000000000000000000000000600052601260045260246000fd5b600061469282613016565b915061469d83613016565b92508282019050808211156146b5576146b461406c565b5b92915050565b60006146c682613016565b91506146d183613016565b9250826146e1576146e0614658565b5b828204905092915050565b60006146f782613016565b915061470283613016565b925082820261471081613016565b915082820484148315176147275761472661406c565b5b5092915050565b6000608082019050818103600083015261474881876130df565b9050818103602083015261475c81866130df565b905061476b60408301856132db565b61477860608301846132db565b95945050505050565b6000604082019050818103600083015261479b81856130df565b90506147aa60208301846132db565b9392505050565b600060608201905081810360008301526147cb81866130df565b90506147da60208301856132db565b6147e760408301846132db565b949350505050565b600081519050919050565b600082825260208201905092915050565b6000614816826147ef565b61482081856147fa565b9350614830818560208601612fa2565b61483981612fcc565b840191505092915050565b600060808201905061485960008301876131c5565b61486660208301866131c5565b61487360408301856132db565b8181036060830152614885818461480b565b905095945050505050565b60008151905061489f81612ef7565b92915050565b6000602082840312156148bb576148ba612ec1565b5b60006148c984828501614890565b91505092915050565b7f4552433732313a206d696e7420746f20746865207a65726f2061646472657373600082015250565b60006149086020836130ce565b9150614913826148d2565b602082019050919050565b60006020820190508181036000830152614937816148fb565b9050919050565b7f4552433732313a20746f6b656e20616c7265616479206d696e74656400000000600082015250565b6000614974601c836130ce565b915061497f8261493e565b602082019050919050565b600060208201905081810360008301526149a381614967565b905091905056fe506c617965722061747461636b656420626f73732e204e657720626f73732068703a2025734142434445464748494a4b4c4d4e4f505152535455565758595a6162636465666768696a6b6c6d6e6f707172737475767778797a303132333435363738392b2f426f73732061747461636b656420706c617965722e204e657720706c617965722068703a2025730a4d696e746564204e465420772f20746f6b656e496420257320616e6420636861726163746572496e6465782025730a506c6179657220772f206368617261637465722025732061626f757420746f2061747461636b2e2048617320257320485020616e64202573204144a26469706673582212206f9d91f4a8b444d43baa01042b7094ec32b48a5fcaaabbe7eb1784293378b76864736f6c63430008120033446f6e6520696e697469616c697a696e6720257320772f2048502025732c20696d67202573446f6e6520696e697469616c697a696e6720626f737320257320772f2048502025732c20696d67202573",
  "linkReferences": {},
  "deployedLinkReferences": {}
}